:10000000401D0020E11D0000D34F0000B51D000081
:10001000B51D0000B51D0000B51D0000000000006A
:10002000000000000000000000000000D51A0000E1
:10003000B51D000000000000811A0000B51D000081
:10004000851B0000851B0000851B0000851B000030
:10005000851B0000851B0000851B0000851B000020
:10006000851B0000851B0000851B0000851B000010
:10007000851B0000851B0000851B0000851B000000
:10008000851B0000851B0000851B0000851B0000F0
:10009000851B0000851B0000851B0000851B0000E0
:1000A000851B0000851B0000851B0000851B0000D0
:1000B000851B0000851B0000851B0000851B0000C0
:1000C000851B0000851B0000851B0000851B0000B0
:1000D000851B0000851B0000851B0000851B0000A0
:1000E000851B0000851B0000851B0000851B000090
:1000F000851B0000851B0000851B0000851B000080
:1001000053B94AB9002908BF00281CBF4FF0FF317E
:100110004FF0FF3000F00CB8ADF1080C6DE904CEE3
:1001200000F008F8DDF804E0DDE9022304B07047D0
:10013000704700BF2DE9F04786468C460846089E6A
:10014000154674461946002B40F0C2808542B2FA2B
:1001500082F245D94AB1C2F1200300FA02FC2EFA1C
:1001600003F3954043EA0C0C94404FEA154EA8B2B5
:10017000BCFBFEF8230C0EFB18CC08FB00F943EA8D
:100180000C43994528D9EB1808F1FF3704D299455B
:1001900002D9A8F102072B44A3EB0903A4B2B3FBD5
:1001A000FEFC0EFB1C330CFB00F044EA0344A042AF
:1001B00014D92C190CF1FF3304D2A04202D9ACF1AE
:1001C00002032C44241A43EA07401EB1D440002302
:1001D00034607360BDE8F0874746DDE76346F1E7CA
:1001E00092BB431B01214FEA154EAFB2B3FBFEFC9D
:1001F000200C0EFB1C330CFB07F840EA0343984528
:1002000062D9EB180CF1FF3004D2984502D9ACF159
:1002100002002B44A3EB0803A4B2B3FBFEFC0EFBCD
:100220001C330CFB07F744EA0344A7424ED92C19B0
:100230000CF1FF3304D2A74202D9ACF102032C44E3
:10024000E41B43EA0040C0E7C2F1200320FA03F1B7
:10025000954090402EFA03F303434FEA154EAFB298
:10026000B1FBFEFC0EFB1C10190C0CFB07F841EA5D
:100270000041884504FA02F422D969180CF1FF30D4
:1002800004D2884502D9ACF102002944A1EB08014F
:100290009BB2B1FBFEFC0EFB1C110CFB07F743EA03
:1002A00001439F420ED9EB180CF1FF3104D29F425B
:1002B00002D9ACF102012B44DB1B41EA004192E779
:1002C0006046E3E76146F7E76046A3E76346B7E7C2
:1002D000834206D916B9002108467BE7C6E900E04B
:1002E000F9E7B3FA83F78FB9834201D3724508D88F
:1002F000BEEB020460EB030301209C461EB9002103
:1003000068E73846FAE7C6E9004CF8E7C7F1200C81
:10031000BB4022FA0CF41C432EFA0CF120FA0CF329
:10032000B84001434FEA14490EFA07F5B3FBF9F858
:100330001FFA84FE09FB18300B0C08FB0EFA43EA87
:1003400000439A4502FA07F240D9E31808F1FF305A
:1003500004D29A4502D9A8F102002344A3EB0A0370
:1003600089B2B3FBF9F809FB183308FB0EFE41EA2A
:1003700003418E452CD9611808F1FF3304D28E4514
:1003800002D9A8F10203214443EA0040A0FB0298ED
:10039000A1EB0E014145CE46434602D306D14D4561
:1003A00004D2B9EB020E68EB04030138002EA6D08C
:1003B000B5EB0E0261EB030101FA0CFC22FA07F324
:1003C0004CEA0303F940C6E9003198E74046C5E727
:1003D0004346D9E738B51446324883684FF4005194
:1003E0005B699847304A00210120134613F8015BEE
:1003F00024FA05F5ED0743D50139062905D8DFE8CC
:1004000001F009111A232C354300284A01211060FC
:100410001A46EAE7264908601978931C24FA01F283
:10042000D50735D5234A0121116013F8012B24FA91
:1004300002F2D1072ED5204A0121116013F8012BB9
:1004400024FA02F2D20727D51C4A0121116013F8C1
:10045000012B24FA02F2D50720D5194A0121116097
:1004600013F8012B24FA02F2D10719D5154A0121FC
:1004700011601A7824FA02F2D20705D40B4407213E
:1004800001310829C4D102E00F4B01221A6038BDA6
:100490000221F5E70321F3E70421F1E70521EFE766
:1004A0000621EDE7B059000043670000EC02002090
:1004B000E8020020E4020020E0020020DC0200202C
:1004C000D8020020D4020020D0020020084A0023D5
:1004D0001360084A1360084A1360084A1360084A08
:1004E0001360084A1360084A1360084A1360704793
:1004F000EC020020E8020020E4020020E0020020DC
:10050000DC020020D8020020D4020020D00200200B
:100510002DE9F14F484804F01EFC484804F01BFC4C
:10052000DFF81CB1584605F083F828B9454801B0FA
:10053000BDE8F04F04F00FBC434804F00CFCDBF8BE
:100540001020DBF80810136823F40053136058469A
:100550000B684FF420220D219847011E05DA3B4815
:1005600001B0BDE8F04F04F0F6BB394EDFF8E4A06F
:10057000B046002418F8019BDBF81070DBF8085037
:100580003B68012202FA09F223EA02033B60524669
:100590002B684946584698470134031E4A4621466F
:1005A00005DA2D4801B0BDE8F04F04F0D4BB2B486C
:1005B00004F0D1FB082CDDD1254CDFF884B04FF0DE
:1005C000000814F801AB4FF001093B68D5F818C0DA
:1005D00009FA0AF21A4214BF4FF000734FF0806319
:1005E0004FF0A07251465846E047031EC84403DA54
:1005F0001B4852464146D5E7B8F1080FE1D11948EA
:1006000004F0A9FB00231A4616F8011B013209FA6F
:1006100001F1082A43EA0103F6D11349134AC1E95B
:100620000123EB692BB10648012201B0BDE8F04F70
:10063000184701B0BDE8F08F8C5D0000DA5D000066
:10064000B05900004F5E0000715E0000915E000036
:100650004367000010000100C75E0000095F000052
:100660003C5F0000885F0000F0020020D50300001E
:100670002DE9F74F0025DFF8A492A94F2C4602265A
:100680004FF4967004F02EFB012EDFF89882DFF80D
:1006900098A2DFF898B200F0F981022E6BD1A4483D
:1006A00004F059FB002D3CD1A248214604F053FB35
:1006B000D9F80030002B56D13B68002B59D1D8F81F
:1006C0000030002B3FD02E1E18BF0126FFF7FEFE84
:1006D0000025994B1B6853B12146984804F03BFB19
:1006E0004FF46170FFF7F2FE04F0FCFA0024944B23
:1006F0001B6813B10134FFF7E9FE924B1B6813B17D
:100700000234FFF7E3FEDAF8003013B10534FFF7E7
:10071000DDFEDBF80030002BB2D00A34FFF7D6FE46
:10072000AEE7012D11D18848214604F014FBD9F819
:100730000030002BC0D0FFF7C9FE3E68CEB9D8F814
:100740000050002DC2D10226C3E7D9F800306BB9A2
:100750003B68002BB3D0FFF7B9FED8F80030002B70
:10076000F1D00126B2E7FFF7B1FEA5E7FFF7AEFE35
:10077000EEE70125EFE76E4804F0EDFA3DBB0923F3
:100780001946724800940B2204F0E5FAD9F80030BB
:10079000002B40F0A8803D68002D40F0B580D8F8CF
:1007A0000060002E4BD0002D40F0DC80082C40F380
:1007B000AD80093C66482246132104F0CCFA02269B
:1007C0004FF4617004F08EFAFFF780FE37E0012DE0
:1007D0001ED1092319465F4800940B2204F0BBFA8E
:1007E000D9F8003003BB3B68002BD8D0FFF76EFE72
:1007F000D8F80060013516B3012D00F0B580022D48
:100800005DD1082C40F3C580093C22461721B0E099
:10081000022D3FD1092319464F4800940B2204F0C2
:100820009AFAD9F800301BB1013DFFF74FFEDAE725
:100830003B68002B60D1D8F80060002EE1D13E4B20
:100840001B6853B121463D4804F085FA4FF46170AE
:10085000FFF73CFE04F046FA0024394B1B6813B145
:100860000134FFF733FE374B1B6813B10234FFF737
:100870002DFEDAF8003013B10534FFF727FEDBF860
:10088000003013B10A34FFF721FE4FF4967004F0E4
:1008900029FA02E7032D15D10923304800940B22D1
:1008A000194604F058FAD9F80060002EBCD13B6814
:1008B0000BB1FFF70BFED8F80030002BBFD000259E
:1008C000022681E7D9F800306BB93B68002B3FF472
:1008D00066AFFFF7FBFDD8F80060002EAFD0032D08
:1008E000EDD0002670E7FFF7F1FD3B68002B3FF4E9
:1008F00056AF022DEDDC79E7FFF7E8FDD8F8006090
:10090000002EDCD103259AE71D466FE71448C4F199
:10091000090104F020FA002652E700BFEC02002093
:10092000E8020020E4020020D4020020D0020020CF
:10093000AE5F0000B65F0000E002002092600000A1
:10094000DC020020D802002024600000A660000025
:1009500056640000926100007E6200006A6300003D
:100960008E640000012D10D10A2C07DD0B3C2246BD
:1009700015216A4804F0EFF9002520E76848C4F122
:100980000B0104F0E8F90125C5E7022D3FF439AF6A
:10099000A5E76348C4F1090104F0DDF90225BAE7CF
:1009A000012D18D123465F480C220A2104F0D3F907
:1009B000D9F800309BBB3B689BBBD8F8003063B3D1
:1009C0000B2C00F3A2805648C4F10C01012504F061
:1009D000C2F92E468EE0022D0ED0D9F800300BB1B0
:1009E000FFF774FD3B68002B62D0FFF76FFDD8F86E
:1009F000003093B1012681E023464B480C220A21A6
:100A000004F0A9F9D9F800304BB93B680BB1FFF7F6
:100A10005DFDD8F80030002B63D1012609E0013DCF
:100A200042E0FFF753FDD8F80030002B59D12E4695
:100A300002253E4B1B6853B121463D4804F08BF91B
:100A40004FF46170FFF742FD04F04CF90024394B7C
:100A50001B6813B10134FFF739FD374B1B6813B125
:100A60000234FFF733FDDAF8003013B10534FFF735
:100A70002DFDDBF8003013B10A34FFF727FD4FF4EA
:100A8000967004F02FF9012E7FF409AE2B4804F084
:100A900062F9002D84D1234629480C220A2104F052
:100AA0005AF9D9F800300BB1FFF710FD3B6873B964
:100AB000D8F80030002BB0D01DBB092C14DD0A3C47
:100AC00020482246132104F046F9022612E0FFF7DF
:100AD000FDFCD8F800300135002B9ED0012D3FF4ED
:100AE0006FAF0025022609E00D48C4F10A0104F0A9
:100AF00032F901264FF4617004F0F4F8FFF7E6FCD8
:100B000097E7012D3FF45CAF74E70C3C0D4822469B
:100B1000152104F020F90025D7E700BF5664000036
:100B20008E6400007D65000044660000E002002045
:100B300092600000DC020020D8020020AE5F0000BE
:100B4000B66400000B6700000B6801330B60014BBB
:100B50001B68184700000020014B1860704700BF59
:100B60000000002007B50B46002102460191034812
:100B700001A900F013F903B05DF804FB490B000074
:100B80002DE9F047058B04462807904611D4022929
:100B900005F0070540F0CD80204604F0E9F878B173
:100BA0000138218B042811D8DFE800F0C3106D85CF
:100BB000950001290CBF45F0100545F0200525835F
:100BC00088F31188BFF36F8FBDE8F08701F0070A43
:100BD000AA4500F0A6800027B9463E46A368002B30
:100BE00000F0BD8041F00801218388F31188BFF334
:100BF0006F8FA168002900F0BB800D68002900F00C
:100C0000B780D1F80480334652462046C047002DB5
:100C100076D02B6829461D46F0E701F007035A1FDE
:100C2000012A1BD8002221F00701062B276889B270
:100C3000C4E9002209D13B4603E0628B1B68013204
:100C40006283002BF9D141F002012183204604F098
:100C50008FF800287BD041F0200177E0042B0AD1E7
:100C600021F0070189B22183204604F081F810B1F8
:100C700041F020012183218B01F0070AAA4550D0C1
:100C80000027B946AAE7236921F0070141F00601D0
:100C9000062DD3F8009021832DD1B9F1000F40D05B
:100CA00041F00801218388F31188BFF36F8F3A491F
:100CB0002046C84729E021F00701236941F00401DB
:100CC00089B2042DD3F804902183E6D000273E4654
:100CD0004FF0040A82E721F00701236941F0050182
:100CE00089B2052DD3F808902183D6D000273E463F
:100CF0004FF0050A72E700273E464FF0060A6DE7FF
:100D00002B4687E7B9F1000FD1D14FF02003EFF365
:100D1000118883F31288BFF36F8F238B23F00803AE
:100D20002383258BEA062ED525F01003238305F0B7
:100D300007056669218B002EBFF66FAF0023276879
:100D4000C4E9003321F0070141F001012183218B27
:100D500001F0070AAA454FF000097FF43FAF002FCA
:100D60009BD041F00801218388F31188BFF36F8F76
:100D7000002FC7D03D68394633465246204604F01E
:100D800023F82F46F4E7AB067FF51AAF25F02003D2
:100D9000238305F00705FFE6F54D00002DE9F04F30
:100DA000814695B08B4617461C460025387808B911
:100DB000284658E37B1C2528039306D05946C8478C
:100DC0000028C0F25083013504E2182200210EA849
:100DD00004F02BF97B78252B7DD00023781C9846D6
:100DE0009E469C461E46014610F8012B2B2A00F019
:100DF000A18000F29880202A00F09F80232A00F032
:100E00009F802BB19DF8403043F040038DF8403077
:100E1000B8F1000F05D09DF8403043F020038DF865
:100E20004030BEF1000F05D09DF8403043F0100374
:100E30008DF84030BCF1000F05D09DF8403043F0F4
:100E400008038DF840302EB19DF8403043F0040384
:100E50008DF840309DF8403003F04400442803D121
:100E60006FF386138DF840309DF840302A2A43F006
:100E700080038DF840307FD19DF8412042F001027F
:100E80004B1C8DF841201A782E2A9DF841200CBF6A
:100E90000121002161F341028DF8412078D15A7877
:100EA0002A2A6ED0013300224FF00A0C194611F89D
:100EB000010BA0F13006092E40F295809DF84010FC
:100EC0001292C1F3400040EAD2700A4660F3410238
:100ED0008DF840205CE0BA1C03928DF843309DF8F9
:100EE0004130DA0740F12E8154F8048BB8F1000F3D
:100EF00007DA9DF8402042F004028DF84020C8F146
:100F000000085E0740F1278154F804ABBAF1000FE6
:100F100080F226819DF841306FF341038DF8413016
:100F20004FF0FF3A1CE12D2A0DD0302A7FF469AF33
:100F3000012358E74FF0010C55E74FF0010E52E73F
:100F40004FF001084FE701264DE70EFB0262303AF1
:100F50000346184610F8016BA6F1300CBCF1090FDE
:100F6000F3D999428FD09DF840101192D20F62F3BD
:100F700041018DF8401086E70B4600224FF00A0E23
:100F8000E7E79DF8412042F004028DF8412002334A
:100F90001A786C2A47D02BD8682A31D06A2A4BD0CD
:100FA0004C2A51D01A4612F8013B0392782B9DF837
:100FB00041208DF8433000F2BE806D2B51D8692B53
:100FC00000F2B980572B67D8412B03D0453B022B49
:100FD00000F2B1809DF84230042262F302038DF8E2
:100FE0004230012373E00CFB0202303A0B465DE70E
:100FF000742A25D07A2AD5D19DF8412006210CE00B
:101000005A78682A9DF8412006D1012161F3C60271
:101010008DF841200233C5E7022161F3C6028DF845
:1010200041200133BEE75A786C2A9DF8412001D156
:101030000421EBE70321F0E79DF841200521ECE7CF
:101040009DF841200721E8E7BDF8402022F4F04256
:1010500022F0020242F4804242F00202ADF8402047
:10106000DFE76E3BD9B201238B4040F282410B4255
:1010700037D113F0240F51D1D8075CD59DF84230F9
:10108000032161F302038DF8423002F07803A3F1EB
:1010900040014B424B411AE0A3F15801C9B2012073
:1010A00000FA01F111F4624F94D140F60106314289
:1010B0001DD111F4043F3ED09DF8423060F302038D
:1010C00002F07802402A8DF8423034D000239DF897
:1010D0004020C2F340010B4363F341028DF84020EE
:1010E000FDE69DF84230022161F30203E8E79DF836
:1010F0004210022002F0780260F30201402A8DF8CB
:10110000421002BF9DF8401041F001018DF84010DF
:10111000632BDBD1131E18BF0123D8E79DF84230A3
:10112000032161F3020312F0780F8DF8423014BFEF
:1011300001230023CBE79DF8403043F001038DF8F5
:101140004030C3E79DF94020002AB4BFDDF8448059
:101150004FF0FF38D5E698077FF5E2AEDDF848A0FE
:101160009DF841100023CDE911339DF8423003F082
:101170000703012BC1F3C30133D1CB1E042B04D8C9
:10118000DFE803F0104646101000236801294FEAFB
:10119000E372CDE90E320BD103F0FF030E9300236F
:1011A0000F9307E054F8043BDA17CDE90E3202E062
:1011B000022911D004349DF8403013F0030647D0C3
:1011C000039B3A465946484603F0DDFE0028C0F22C
:1011D0004A810544039FE9E51AB20E9243F3C033F6
:1011E000DEE7022B24D1CB1E042B04D8DFE803F06A
:1011F000181010181800012954F8043B4FF0000291
:1012000014D00229CDE90E32D5D19BB20E93D2E78C
:10121000073424F00704F4E80223CDE90E23CAE7DB
:1012200054F8043B0E9300230F93C4E7DBB2BCE7F2
:10123000042B08D1073424F00704D4E90023083430
:10124000CDE90E23B7E7032BB5D154F8043BDDE716
:101250009DF843007828BDD862281CD825283FF483
:10126000ADAD5828B6D10DF136030093DDE90E017E
:1012700008AB10AA03F041FEBAF1000F074680F256
:101280009A80002FA6D00DF13603D81B002E00F057
:10129000C1800130BEE0633815289BD801A252F806
:1012A00020F000BF791300008B130000D51100005F
:1012B000D5110000D5110000D51100008B130000DE
:1012C000D5110000D5110000D5110000D511000086
:1012D00019140000B1130000D7130000D51100004D
:1012E000D5110000FD120000D5110000B11300005F
:1012F000D5110000D5110000B1130000BAF1000FA4
:101300000E9F35DB5146384603F07BFE07EB000AA3
:10131000002F3FF45FAF00269DF8423013F010021B
:10132000059200F0938002305B06119A48BF129B31
:101330000492104448BFC018B8F1000F40F3A080D9
:101340009DF84020A8EB0008C2F3800350070693E5
:1013500000F19680510640F189803EB159463046F1
:10136000C84700287FDB069B01351E4630227EE001
:10137000384603F03FFEC9E70E9B8DF8203000266B
:1013800008AF0DF1210A0120C6E719075CBFC3F3BE
:1013900000135E01DDE90E2348BF2B26002BBFF6AC
:1013A00062AF524263EB4303CDE90E232D265AE789
:1013B000002658E700269DF840200DF13603DB1B80
:1013C0006FF386129A458DF840207FF65AAFAAEB4C
:1013D0000303119355E70E9890B30DF13603009374
:1013E00010AA08AB002103F088FDBDF8423003F0DD
:1013F000EF0343F4F04343F01003BAF1000F074644
:10140000ADF84230D6DA00283FF4E4AE0DF13603F1
:10141000181A00269A467FE70E9B07293FF6DAAE98
:10142000DFE801F00C04060C08080C0C1D70D1E676
:101430001D80CFE6EA17C3E90052CBE61D60C9E67E
:101440002E4F064607F1050A052065E71A0748BF33
:10145000013069E70793104606925946C8470028AD
:10146000DDE9062304DA15B0BDE8F08F20224346FB
:101470001946002903F1FF33ECDC45446D1A984608
:101480002EB159463046C8470028ECDB01359DF89F
:101490004230DA0601D41B0705D559463020C8472B
:1014A0000028E0DB0135059B33B19DF84300594628
:1014B000C8470028D7DB0135049E2E4405E0594675
:1014C0003020C8470028CEDB0135731B002BF6DC2B
:1014D00053463A465946484603F055FD0028C2DBBC
:1014E0000544A844A8EB0503002B7FF773AE5946CB
:1014F0002020C8470028B6DB0135F3E74B67000022
:1015000008B54FF02002EFF3118382F31288BFF386
:101510006F8F00F0E7FD034803F01DFC00F02AFA8E
:10152000FCE700BF516700002DE9F84305464FF086
:101530002003EFF3118683F31288BFF36F8F0E4BF6
:101540000E4F1C68DFF838804FF00C092CB986F379
:101550001188BFF36F8FBDE8F883D4E90123002D14
:1015600018BF13462BB198F8142009FB02F2B85C9F
:1015700098472468EAE700BF0C030020000300201E
:101580009C0900200A4ABFF35B8F430902EB8302E8
:1015900000F01F0001238340DB4352E8000F184096
:1015A00042E800010029F8D1BFF35B8F704700BF0C
:1015B000FC02002070B5194B1C7DBFF35B8F04F05B
:1015C0001F0301229A40164B610903EB8103D043AC
:1015D00053E8001F01EA000543E80056002EF7D14A
:1015E000BFF35B8F0A4213D00E4B0F4D8BB10C2310
:1015F0006343EA18E85C517803F02FFD0020FFF701
:1016000093FF0C235C432A1900232B51C2E90133B9
:1016100070BD83F31188BFF36F8FEFE79C09002043
:10162000140300205B500000000300202DE9F84364
:10163000324B334A1C7DBFF35B8F63094FEA83084B
:1016400052F823302F4EBFF35B8F04F01F0943FA8B
:1016500009F313F0010F07460AD10146204600F0B6
:1016600069F828B107C80C2303FB046383E807006B
:101670000C236343F218F55C2DB92046FFF782FF77
:101680002846BDE8F8837B1C10D0D2F808C01E4D58
:101690001E4A4FF400400021ECFB00510023284675
:1016A000FEF72EFD0121381A04F00FF902F0B0FE0A
:1016B0000120FFF739FFBFF35B8F154B98440123DF
:1016C00003FA09F358E8002F1A4348E800210029DB
:1016D000F8D1BFF35B8F0F4B33B10C236343F21888
:1016E000F05C517803F0ADFCFFF764FF2046FFF794
:1016F00049FF02F0A1FE0120C3E700BF9C090020C2
:10170000FC020020000300203F420F0040420F0077
:101710001403002043500000054BBFF35B8F53F8C8
:101720002000BFF35B8F003818BF0120704700BF57
:10173000180300202DE9F74F884601A900F042F870
:10174000441E24B204EB4404DFF86C900546A40068
:1017500025B92F46384603B0BDE8F08F019B185DD0
:101760001F19FFF7D9FF064610BB7868134A4FF4DC
:10177000004ACC463146E0FB0AC100236046FEF732
:10178000BFFC8346B8680D4ACC463146E0FB0AC12F
:1017900000236046FEF7B4FC094B1B685A1C01D0BD
:1017A000834205D9B8F1FF3FD4D058444045D1D940
:1017B000013DADB20C3CCBE73F420F0040420F0071
:1017C0000400002008B9024B0B600020704700BFE6
:1017D000A85B0000014803F0F7B800BFA85B000059
:1017E00010B5044618B90D4B0D485B689847616801
:1017F00031F004030CD008290AD011F0020108D0FE
:101800000848214603F058FF00232360002363604B
:1018100010BD2068142203F008FCF7E7E000002068
:101820007A6700003408002008B508B34368042B29
:1018300010D101220368BFF35B8F53E8001F00291A
:1018400003D143E800200028F7D1BFF35B8F0BD111
:10185000002008BD53B100684FF0FF324FF0FF3356
:1018600002F0C6FA0028F3D00348F2E70348F0E795
:101870006FF4E040EDE700BFE98FFFFFEA8FFFFF65
:1018800008B5C0B14368042B10D100220368BFF330
:101890005B8F53E8001F012903D143E80020002893
:1018A000F7D1BFF35B8F09D1002008BD43B10068B9
:1018B00002F016FBF8E76FF4E040F6E70148F4E7C2
:1018C0000148F2E7E98FFFFFEA8FFFFF10B50446FA
:1018D00018B9164B16485B6898476368042B23D0E9
:1018E000082B21D0CBB92368BBB912484FF0FF3287
:1018F0004FF0FF33214602F0A3F908B923681BB962
:101900000A4B0D485B68984720681422002103F0B9
:101910008CFB636843F002036360206803F00AFFF6
:10192000636843F00103636010BD00BFE000002066
:101930007A67000034080020A067000008B5064957
:1019400006484023142203F09CFEBDE808400449E9
:10195000044803F099B800BF340300203408002085
:10196000B05B0000C45B0000014910220A607047B0
:1019700010ED00E072B6404080F31188BFF36F8F26
:10198000BFF34F8F30BF62B6BFF36F8F704700BF9A
:1019900072B6494081F3118820BF80F3118862B686
:1019A000704700BF40B2002807DB044A4109012309
:1019B00000F01F00834042F82130704700E100E052
:1019C000054B420900F01F0053F82220012303FABF
:1019D00000F01040704700BF00E100E040B2002876
:1019E000A8BF00F1604001F10101B8BF064B4FEA0A
:1019F0004111ACBF00F5614000F00F00C9B2B4BFA7
:101A0000195480F80013704714ED00E030BFFFF761
:101A1000FDBF00BF0B4A08B50B4B22F07F029A6056
:101A2000BFF34F8FBFF36F8FD3F8882022F470027B
:101A3000C3F8882002F034F802F01AFE00F0C4F96E
:101A400002F072F80000000000ED00E0094A0A49C7
:101A5000936809689967094958674B6843F0805350
:101A60004B60002383F31188BFF36F8F9368986FE7
:101A7000704700BF9C090020005D000000ED00E001
:101A800012498A684FF030001044EFF3098C80E867
:101A9000F01F202080F31288BFF36F8F0C4F4FF0A0
:101AA0000066CA698A603E60506F0023536780F306
:101AB000118804B5104600F023FABDE8044002F195
:101AC000300090E8F01F8CF3098870479C090020D3
:101AD00004ED00E01EF0040F0CBFEFF30880EFF3FD
:101AE0000980816911F8021C0229FFD001B503F0B9
:101AF00068FA01BD42F8203C009B42F81C3C0A49B0
:101B0000019B42F8183C029B42F8143C21F0010171
:101B10004FF0807342F8043C42F8081C0023203A3E
:101B200002654367704700BFE74E0000094A03465D
:101B3000906870B113F1160F406E05D0A0F120022D
:101B40009A4205D8834203D2814228BF00207047C1
:101B5000002070479C09002008B5094B98600D468D
:101B6000144600F0CDF9204685F30988002163B6BC
:101B700081F31188BFF36F8F0022002303F0B3F9C4
:101B80009C09002001B572B60B4A906900281EBF5F
:101B90000021916103F0BFFD62B6EFF30580A0F173
:101BA00010004FEAC0000549014409C99847BDE843
:101BB00001400349084700009C090020F859000033
:101BC000C51B0000044B9968D869884203D00349BB
:101BD0004FF080520A6070479C09002004ED00E03D
:101BE0000D4B9A6A9A6A9A6A920508D59A6B9A6A14
:101BF000120404D518B19A6A22F400429A629A6AD1
:101C00009A6AD205044A58BF9B6A936A002043F43B
:101C10007F4393620870704700ED00E01D4B70B584
:101C200015469A6A9A6A9A6A9207064622D5586BAE
:101C30009A6A14061ED519B19A6A22F080029A6235
:101C40009A6A9A6A9A6A134C12F0100F15D19B6A1D
:101C5000990712D40020A36A0E4A9B0642BF636A0A
:101C600023F400536362936A43F0FF0393620023FB
:101C70002B7070BD6FF01500E2E763681A05E9D5B7
:101C80003146FFF753FF0028E4D080F30988022093
:101C9000E1E700BF00ED00E070B5414B5B688AB042
:101CA0000546C3F30803002686F31188BFF36F8F40
:101CB00002F07F40B0F17F4F11D102F00C000828F4
:101CC0000DD010074CBF0D4601260022033B8DF8B6
:101CD0000720032B3BD8DFE803F00453575B35465E
:101CE000F3E72F4BDA6A910731D4DA6A002A2EDB48
:101CF000DA6A52002BD5AA6932F8021C4DF602723C
:101D000091420AD093F828204AB10DF1070201212F
:101D10002846FFF783FF04461AE02C6818E093F882
:101D200029202AB10DF107010120FFF759FFF2E741
:101D30005A8D92B25AB19A6A9A6A9A6A9A6A9A6A59
:101D40009A6A9A6A6FEA02426FEA12429A62002421
:101D50009DF8073093B92022294602A803F05AF9CA
:101D6000099BBEB1C3F3080222B96FEA53236FEA9D
:101D70004323099302A9204603F021F90AB070BD5C
:101D80000DF107020021C3E70DF107010020CCE7A8
:101D9000034BD0E723F4FF7323F00103E9E700BF0F
:101DA00000ED00E0024A536943F0100353617047AD
:101DB00000ED00E0EFF30880EFF3098101B5724612
:101DC000FFF76AFF01BD00BF044800232021C218AD
:101DD0000133302B82F80013F9D1704700E100E0A5
:101DE000002080F31488BFF36F8F03F093FD002071
:101DF0000D490860BFF34F8F0C4880F3088800F04E
:101E00002BF8202080F3118809484FF40261401814
:101E100080F30988EFF314800221084380F31488CB
:101E2000BFF36F8FFFF7F6FD94ED00E0401D00203B
:101E3000C00F00200749D1F890200023C2F30722E9
:101E40001846934200DB7047C1F89830C1F8A000F3
:101E50000133F6E700ED00E008B572B6002383F326
:101E60001388FFF7E7FF144B4FF0FF32C3F88020D1
:101E7000C3F88420C3F88820C3F88C20C3F89020CE
:101E8000C3F89420C3F89820C3F89C20C3F880219D
:101E9000C3F88421C3F88821C3F88C21C3F89021AA
:101EA000C3F89421C3F89821C3F89C2162B6BFF30C
:101EB0004F8FBFF36F8F08BD00E100E0084B9B68B8
:101EC00083420BD1EFF3058343B1064B5A6842F0CE
:101ED00080525A605A6A22F400425A6202F076BB7B
:101EE0009C09002000ED00E0024B034A0348012159
:101EF00000F070B80000042000000020D45B000057
:101F0000426E054B203A1A60044A2021C3E90112AF
:101F10001846012100F068B85008002000000B1599
:101F2000F0B5204E00258D4201DB1046F0BD44681F
:101F300074B353B104F1FF3C14EA0C0F2FD11F2CE2
:101F40002DD907681CEA070F29D1202C0768D0F883
:101F500008C05FFA82FE1ED9B4F1004F1DD8013CC3
:101F6000B4FA84F4C4F11F046400BEF1070F4CEA14
:101F7000040C14D827F01F04144344F01004C6F8CE
:101F80009820C6F89C404CF00104C6F8A0400132ED
:101F900001350C30C7E70824E7E73E24E5E76FF09A
:101FA0001502C2E700ED00E0044B0522C3F89420BF
:101FB000BFF34F8FBFF36F8F704700BF00ED00E09E
:101FC000BFF35F8F024B0022C3F89420704700BF1D
:101FD00000ED00E010B5034C01232278FFF7A0FFCD
:101FE000207010BDAC0B002008B5094A0023127800
:101FF000FFF796FF10F1160F02D0064A072800DD02
:1020000008BDC2F89800C2F8A0300130F6E700BF62
:10201000AC0B002000ED00E014490868082810B55A
:1020200021D8FFF7CDFF124C49680022904201F100
:102030000C0105D10F4B1870FFF7B6FF002010BD43
:10204000C4F8982051F80C3C23F01F03134343F0CD
:102050001003C4F89C3051F8043C43F00103C4F869
:10206000A0300132E2E74FF0FF30E8E7E05B00002C
:1020700000ED00E0AC0B0020014B1860704700BF82
:102080002800002010B54FF02003EFF3118083F3F8
:102090001288BFF36F8F114A0123C2F840354FF009
:1020A00080424FF08051C2F87835D1F83041082C89
:1020B00008D1D1F83411052904D8094C615C09B163
:1020C000C2F838364FF080430122C3F8802580F3F0
:1020D0001188BFF36F8F002010BD00BF00E00140EA
:1020E000DC6700004FF08043C0B2C3F81C05BFF3AB
:1020F0004F8F0549054BCA6802F4E0621343CB6079
:10210000BFF34F8F00BFFDE700ED00E00400FA05CC
:1021100020B1034B800143F001031847704700BF13
:10212000A05B0000084B70B5C31A0D4607499B1011
:10213000044659430648402202F0B1FF2B460146AF
:102140002046BDE87040184770080020B76DDBB628
:102150008059000073B50C4C0C4A4023041B0093BB
:102160000D460B460A49A41061430646094802F091
:10217000C3FF011E05DA30462B4602B0BDE87040B1
:10218000184702B070BD00BF700800206551000004
:10219000B76DDBB680590000002270B501210446FE
:1021A0001046FFF71BFC0F4801F05AF80E4B9842FF
:1021B00015D103F092F926690C49304602F028FE49
:1021C00000280BDB246909490125356404F11C0052
:1021D00002F01EFE002801DBE564002070BD6FF0F8
:1021E0000400FBE7252200000000AD0B005C0000AE
:1021F00001460C2309484B4370B5C418D4E90E5668
:1022000000224033A263184402F036FF2DB132465B
:102210002B460348BDE87040184770BD7008002089
:102220008059000010B1012804D07047034B1B6C8B
:102230005B0701D1FFF7DCBF704700BF70080020CB
:1022400008B54FF02003EFF3118183F31288BFF339
:102250006F8F124A136843F002001060DA0708D447
:1022600081F31188BFF36F8F0120BDE8084003F0B0
:1022700041B94FF08043D3F80C24D3F80C34D30782
:10228000EED5074802F0F8FE81F31188BFF36F8F97
:102290000020BDE80840FFF7ABBF00BFC00800202A
:1022A000B00800201FB500220123CDE90223094A0E
:1022B000CDF800D06B46CDF804D002F04CFF0028DA
:1022C00005DB4FF480420023684601F06BFE05B049
:1022D0005DF804FB83510000094BBFF35B8F53E8AB
:1022E000002F22F0020143E800100028F7D1BFF3CD
:1022F0005B8FD30702D4012003F038B9704700BFC9
:10230000C00800202DE9F0413849BFF35B8F074634
:10231000012251E8003F41E800200028F9D1BFF335
:102320005B8F33B9324933484B60CB608A6002F02F
:1023300082FD7B1E012B2BD8012F07D14FF080434C
:10234000D3F81C3403F00303012B21D003F0DDF993
:102350000546F8B9284B1B78E3B14FF080430222C1
:10236000C3F808230646DFF894804FF08044D4F881
:102370001834D4F81824D20316D503F00303012B24
:1023800001D0012F10D15DB386F31188BFF36F8F99
:10239000BDE8F0814FF02003EFF3118683F312883C
:1023A000BFF36F8F0125DEE7ADB13046FFF7F0FADE
:1023B000D4F81835002BDAD1D4F80421002AD6D06D
:1023C000C4F80431D4F804310123C4F81835C8F82E
:1023D0008031A360CBE70021212002F0D7F8E7E7A6
:1023E0004FF080430222C3F80423D1E76C08002099
:1023F0005C0800208C080020BD0F002000E100E0F8
:1024000008B5084B0848186003F012F938B10748BE
:10241000FFF732FE0548FEF79FFB002008BD6FF076
:102420001200FBE7C4080020E0590000312400003E
:102430000A2838B5074D044604D1286883680D2161
:102440005B68984728688368E1B25B6898472046D4
:1024500038BD00BFC408002030B54068057B01F0DE
:102460001F04B2F5001F85B044EA451404D120468C
:1024700001F076F900204AE00025B2F5800FCDE9A1
:10248000025514D1B3F1007F0CBF042305238DF84E
:1024900008300023194602AA204600F0A1FF204B75
:1024A00098423AD10121204601F012F9E2E7B3F156
:1024B000C06F2ED0B3F1007F14BF012302238DF82B
:1024C00008308368CB40D907E3D4B2F1A07FE0D1D4
:1024D0006209012A04F01F03124A03F5E07318BFD2
:1024E0004FF0A04252F82330DB07D2D40DF107059C
:1024F0002946204601F098F80B4B98420BD128460C
:1025000001F0E0F8064B984205D06FF00B0005B0E3
:1025100030BD0323D3E70395BBE76FF00400F6E774
:102520000000AD0B000300500400AD0B10B501F02E
:10253000B9F8044668B901F08DF8084B98420AD101
:102540000748214601F06AF8224605210620FFF7D8
:1025500045FA002010BD6FF00400FBE70000AD0B52
:1025600065250000420970B5034602D0012A17D044
:1025700070BD0D4E326951680029F9D003F01F0378
:1025800001250C689D400029F2D08A682A4002D0BB
:102590004B68304698472CB1236821461C46F2E729
:1025A000024EE7E72346F8E7B059000098590000CB
:1025B0002DE9F04347683B7B01F01F0585B00E46CF
:1025C00045EA43151446D2B902A9284601F02CF871
:1025D0000446284601F0ECF8464B984204D06FF0D0
:1025E000040005B0BDE8F083844201D00020F8E784
:1025F0009DF8080001F060F8A042F7D0EFE74FF037
:1026000000090DF103013046CDE9029901F00CF803
:102610004B46804602AA4946284600F0E1FE354B6B
:10262000984202D06FF01500DBE7804503D19DF89A
:10263000030001F041F8A3034CD540F206632340A8
:1026400040F20622934219D00CD8062B17D004D89A
:10265000ABB1022BE6D1042311E0B3F5007FE1D149
:1026600001230CE040F20242934227D0B3F5C06F41
:1026700026D0B3F5806FD5D1022300E007238DF873
:10268000043084F48033C3F30043E0068DF8053052
:1026900054BFC4F34013032321038DF8063011D532
:1026A0007A680123B340C2F80835002201A9284600
:1026B00000F044FF0F4B984298D0B3E70523DEE7C4
:1026C0000323DCE7620341BF01237A68B340C2F809
:1026D0000C35EAE7E3064FF0000354BFC4F340149F
:1026E00003241A4601A928468DF8044000F078FE1C
:1026F000E0E700BF0000AD0BF0B54B79012B26D011
:10270000032B21D110268B79032B1DD1CC790CB151
:10271000012C19D10A7912B1022A15D10E220B68A7
:102720004568B3F5164F2D6865D02DD8B3F5165F03
:1027300064D016D8B3F5966F62D00AD8B3F5967FF9
:1027400061D0B3F5167F61D06FF0850052E00026AE
:10275000D9E7B3F5166F5CD0B3F5965FF4D1374B7C
:102760003CE0B3F5E14F57D007D8B3F5615F55D0E2
:10277000B3F5964FE8D1324B30E047F61227BB4213
:10278000E2D14FF4000329E0B3F5613F48D013D8FC
:10279000B3F5963F47D009D84DF6C027BB4244D089
:1027A000B3F5614FD0D14FF46B0317E0B3F5E13FC0
:1027B000CAD14FF0EB7311E0B3F5612F38D008D8D0
:1027C000204FBB4237D0B3F5E12FBDD14FF0E863C6
:1027D00004E01D4FBB42B7D14FF080530069C5F8EC
:1027E0002435031D03C934432243C5F86C2583E80F
:1027F00003000020F0BD4FF41D03EFE7134BEDE79E
:102800004FF49E23EAE74FF4A033E7E74FF41C337D
:10281000E4E74FF41D23E1E70D4BDFE70D4BDDE768
:102820004FF06C73DAE70C4BD8E74FF46503D5E74C
:102830004FF07063D2E74FF08063CFE700B0130032
:1028400000A04E0090D0030040420F00005027002F
:1028500000C0750000F03A0000903A012DE9F743FE
:10286000D0F804800669D8F80040D8F80C90002110
:10287000C4F800150746306001AA484602F05FFD23
:10288000051E56DB019BD9F800201979186802F063
:1028900073FD051E4DDB311D3846FFF72DFF054644
:1028A000002846D1D8F80430990719D506F112004E
:1028B00001F080F8224B98423FD1B07CC30003F175
:1028C000804303F5F83304F10C0204F59071C3F86A
:1028D0001015C3F814251B4A01238340C2F80435A0
:1028E0000823C4F8003598F808305BB9C4F81031F3
:1028F000D4F8103106F11103C4F834350123C4F8BB
:1029000038352360D8F804309A075CBF4FF48072E2
:10291000C4F80423DB0644BF4FF48003C4F8043337
:1029200010360023C4F84465C4F848350123A36079
:10293000E360284603B0BDE8F0836FF00405F8E7D4
:102940000000AD0B00F00140F8B5066905460F46E2
:1029500002F0DBFEB0B92C4B1B789BB16424686895
:1029600002F085FCF8B9012002F0B5FD013CF6D17A
:102970000021212001F00AFEF0E784F31188BFF363
:102980006F8FF5E74FF02003EFF3118483F3128884
:10299000BFF36F8F686802F06AFC88B984F311880E
:1029A000BFF36F8FEEE74FF02003EFF3118483F353
:1029B0001288BFF36F8F686802F059FC0028DCD0E2
:1029C00006F8107F69680B680122C3F84465C3F8F4
:1029D00048250022C3F82021D3F82001C3F858214C
:1029E000D3F858214A68D20641BF0822C3F800250F
:1029F0004FF48002C3F8042301229A6084F3118803
:102A0000BFF36F8FF8BD00BFBD0F002070B501236D
:102A100083400E4ABFF35B8FDC4352E8001F01EA9C
:102A2000040542E80056002EF7D1BFF35B8F4FF448
:102A3000803282400648C0F80823BFF35F8FBFF39F
:102A40006F8F0B4214BF0120002070BDE4080020EE
:102A5000001001401B49F8B5044622F07F45086884
:102A6000C1E90023A5F50013101AB3F5400F0FD3E9
:102A700001F0E2FEA30003F1804303F58833D3F8AD
:102A8000402595421DD14FF40002C3F8402512E0C5
:102A90000D4B1B681A0A1B065E190C4B42F100070E
:102AA000C3E9006701F0C8FE094A04F5A87352F8AB
:102AB00023309D4205D1064A4FF48033A340C2F82B
:102AC0004433F8BDB8010020E8080020C001002010
:102AD0000010014011B3BFF35B8F0123104A834004
:102AE00052E800CF4CEA030C42E800C10029F7D1BC
:102AF000BFF35B8F0B4A4FF480338340C2F804333B
:102B0000094BBFF35B8F1B68BFF35B8FC340DB07D1
:102B100042BF064B4FF40032C3F80021704700BF9C
:102B2000E408002000100140E008002000E100E07F
:102B30000D4B1868010A0006BFF35F8F0B4BD3F8EB
:102B40000435181841F10001B3F5801F0AD2084B73
:102B5000D3E90023904271EB030303D210F180709C
:102B600041F10001704700BFE8080020001001405B
:102B7000C00100202DE9F74F14461D460746FFF718
:102B800045FF0090FFF7D4FFA04271EB05037AD216
:102B9000464B201A65EB0101984271F1000180F06B
:102BA0008180434B03EB0713D3E902239D4208BF07
:102BB000944253D04FEA870A0AF1804A07F150093C
:102BC0000AF5883A4FEA89091FFA89F924F07F4803
:102BD00009F180494FF48033DAF84005354A09F5A8
:102BE0008839BB404646D2F804B5A0EB0B0020F074
:102BF0007F402BF07F410128CAF8401505D1019391
:102C0000132002F082FE2B4A019B0BF1020CA6EB73
:102C10000C0020F07F40B0F5000F88BF6646002012
:102C2000C9F80000D9F80000C2F8443326F07F400C
:102C3000CAF84005D2F80405834506D0301A023898
:102C400020F07F40B0F5000F1BD8A6EB080626F059
:102C50007F46361945F1000334461D4614490C9849
:102C60003B0101EB0712C8500D9B5360C2E90245BE
:102C7000002438460099FFF72DFF204603B0BDE839
:102C8000F08F3046AFE701230B4ABFF35B8FBB40A9
:102C900052E8000F184342E800010029F8D1BFF3C1
:102CA0005B8FDBE76FF01504E3E700BF0100000175
:102CB000A801002000100140E008002073B5194B66
:102CC000194D00244FF0FF304FF0FF31C5F8084593
:102CD000C3E902014FF48033C5F80433134B0226D5
:102CE0004FF400320121C5F804631120C3F880219C
:102CF0002246FEF773FE1120FEF754FE0C4A012314
:102D0000AB602B6013600B4B0B4A009301940023C4
:102D10002046FFF72FFF3046FFF7F4FA204602B0B7
:102D200070BD00BFA80100200010014000E100E0DC
:102D3000E4080020552A0000FFFF7F002DE9F7433B
:102D4000334CD4F804339A070BD5D4F8043143B18B
:102D5000304A0023C4F80431D4F804311368013335
:102D600013604FF02003EFF3118283F31288BFF357
:102D70006F8FD4F80433DB0329D5BFF35B8F264B69
:102D800053E8001F21F0010043E80005002DF7D1B2
:102D9000BFF35B8F11B9D4F84031C3B10025C4F83B
:102DA0004051D4F8403182F31188BFF36F8FFFF7A1
:102DB000BFFE4FF02003EFF3118283F31288BFF3BD
:102DC0006F8F164BD3E90267B042B94106D282F346
:102DD0001188BFF36F8F03B0BDE8F0834FF0FF3869
:102DE0004FF0FF39D3E90010C3E902891D604FF4A9
:102DF0008033C4F8483382F31188BFF36F8F002902
:102E0000E9D0009032463B4628468847E3E700BFBA
:102E100000100140E8080020E0080020A801002080
:102E2000431C13B521D0012821DDB0F5000F20DAB5
:102E3000441EFFF77DFE104BD3E90013421AB2F592
:102E4000000F0E4828BF002401322244824228BFCE
:102E5000024652184FF0000009490190009143F1D9
:102E60000003FFF787FE02B010BD0448E0E700242E
:102E7000DFE7024CDDE700BFB8010020FFFF7F0065
:102E8000552A000008B5FFF753FE024B1B68C01A15
:102E900008BD00BFB801002000F01F014009012853
:102EA000044B4FF0010218BF4FF0A0438A40C3F813
:102EB0000C2570470003005000F48053002B30B500
:102EC00016BF002114460124C0F3811500F01F0233
:102ED00010F0200F00F4706040EA8500064B40EAD5
:102EE000010008BF4FF0A04302F5E07240EA440041
:102EF00043F8220030BD00BF0003005000F01F0166
:102F000040090128044B4FF0010218BF4FF0A043C5
:102F10008A40C3F808257047000300504FF08053E3
:102F2000D3F83021082A06D1D3F83431052B02D842
:102F3000024AD05C70470020704700BF0A6800005A
:102F4000024AD2F80034002BFBD0704700E0014069
:102F50004FF0805310B5D3F83021082A4ED14FF0EE
:102F600080420021C2F80C11C2F81011C2F83815C5
:102F700002F54042D3F80414C2F82015D3F808141F
:102F8000C2F82415D3F80C14C2F82815D3F810147D
:102F9000C2F82C15D3F81414C2F83015D3F818144D
:102FA000C2F83415D3F81C14C2F84015D3F8201415
:102FB000C2F84415D3F82414C2F84815D3F82814DD
:102FC000C2F84C15D3F82C14C2F85015D3F83014AD
:102FD000C2F85415D3F83414C2F86015D3F8381475
:102FE000C2F86415D3F83C14C2F86815D3F840143D
:102FF000C2F86C15D3F84434C2F87035FFF78EFF71
:1030000018B13B4B3B4AC3F88C26FFF787FF18B13A
:10301000394BFB22C3F81825FFF780FF70B14FF042
:1030200080414FF08053D1F8E42ED3F8583222F08B
:103030000F0203F00F031343C1F8E43EFFF76EFFE6
:1030400020B12E4B4FF40072C3F840264FF080534E
:10305000D3F83031082B1AD14FF08043D3F8002435
:10306000D20744BF6FF00102C3F800244FF0805331
:10307000D3F83431052B02D8214AD35C3BB14FF051
:103080001023D3F808224FF08043C3F858254FF09F
:103090001023D3F80022002A03DBD3F80432002BDC
:1030A00022DA184901234FF01020C1F80435122408
:1030B000FFF746FFC0F80042FFF742FFC0F80442A6
:1030C000FFF73EFF0023C1F80435FFF739FFBFF3D8
:1030D0004F8F0D490D4BCA6802F4E0621343CB6079
:1030E000BFF34F8F00BFFDE7094B0A4A1A6010BDBE
:1030F000005000404881030000F000400090024072
:103100000468000000E0014000ED00E00400FA0562
:10311000540000200090D00370B501250268BFF371
:103120005B8FB2FA82F3C3F11F03DBB205FA03F43B
:1031300022EA040450E8006F964204D140E8004CB3
:10314000BCF1000FF6D1BFF35B8FE7D101480B70E4
:1031500070BD00BF0000AD0B0368CB40DB0710B5AE
:1031600014D401238B400268BFF35B8F43EA020152
:1031700050E8004F944204D140E8001CBCF1000F1D
:10318000F6D1BFF35B8FEED1014810BD0148FCE7DB
:103190000000AD0B0400AD0BF7B5044618B10128D3
:1031A00022D003B0F0BD4FF080430222C3F80823C1
:1031B000C3F80401D3F804210122DA600746012391
:1031C0008DF8073042F210754FF08046CCB1012CDB
:1031D000E7D1C7B3D6F80C3403F001033B70D6F83F
:1031E0000C34DA0321D516E04FF080430022C3F8F7
:1031F0000803C3F80021D3F8002158600DF1070738
:10320000DDE7B7B1D6F8183403F003033B60D6F816
:103210001834D803C5D59DF80700012803D102F062
:103220005AF9013DD2D1012CBBD10C4B00225A716D
:10323000B7E7D6F81834D903B3D5012002F04BF91B
:10324000013DF6D1ADE7D6F80C34DB03EDD5012016
:1032500002F041F9013DF6D1E7E700BFEC0800209C
:10326000044B1A7922B9012218609A8002487047EB
:1032700002487047EC0800200000AD0B0C00AD0BBD
:103280004FF0804310B5D3F800216AB10022C3F893
:103290000021D3F800210122C3F80823114B5879EB
:1032A00010B95A711B6898474FF08043D3F8042136
:1032B00072B10022C3F80421D3F80421D3F81824F2
:1032C000D3F81814920704D10122C3F818259A6084
:1032D00010BD0222C3F80823024BBDE810401B6852
:1032E00001201847EC080020036803F01F025B0967
:1032F000012B0260024818BF4FF0A040704700BF8A
:1033000000030050034B083033F81000C0F34010A6
:10331000704700BF5800002070B500F108030C4C46
:1033200034F81330DA0505460E4607D5C3F34323B8
:1033300004EBC30254F8333052689847A3682BB1AA
:10334000E26831462846BDE87040184770BD00BFAE
:1033500058000020124A083010B432F81030D90555
:103360001BD5C3F3432123F4F85322F8103002F1A4
:103370000E04002034F8023F13F4807F03D0C3F31F
:103380004323994209D001303028F3D1002342F879
:103390003130044810BCFFF7DFBE10BC704700BFDF
:1033A00058000020CC00002038B50246FFF7AAFFE5
:1033B000094C02F1080540B134F8153007495B0BA0
:1033C00003F5A273002041F823001046FFF7C2FF67
:1033D000002324F8153038BD58000020006000405C
:1033E0002DE9F043044685B090461D46F1B14E4F9D
:1033F00000F1080937F81960B30702D5FFF782FF1B
:1034000018BB002326F00206CDE900338DF80E30FC
:103410008DF80F300DF10F020B4620460DF10E0115
:1034200046F0010602F0A4F827F81960B8F1000F81
:1034300026D03D4B98F80070D8F8042004F1080617
:1034400033F81610880702D592B138481AE021F0F7
:103450002001C904C90C23F816104AB1032FF4D86F
:1034600092F800C08FB9324A0CF5A27C42F82C7059
:1034700033F8162022F01C0242EA870223F81620B5
:103480004DBB2C4805B0BDE8F0834FEA8C0202F139
:10349000804202F5C04241EA4C31D2F8100520F0DA
:1034A0000300C2F81005D2F8100520F44F3020F4C4
:1034B0004070C2F810052002D2F810E500F47C50EC
:1034C00040EA074040EA0E0041F0200123F81610C0
:1034D000C2F81005CCE7D5E900672046FFF73AFFB0
:1034E000002ECED0104DD5E90023964201D19F4247
:1034F00018D011480DF10F01FFF70EFE0D4B984249
:10350000C0D19DF80F2045F8326005EBC2030834A6
:103510005F6035F8143043EA422343F4807325F8A2
:103520001430AEE70022EEE7580000200400AD0B97
:10353000006000400000AD0BCC0000202DE9FF41F1
:103540000446154609B3324F00F1080837F81860F1
:10355000B20703D4FFF7D6FE002857D116F01C0F90
:1035600002D04B78012B51D001238DF80F3000236E
:10357000CDE900134A1C8B1C20460DF10F0146F0CB
:10358000030601F0F5FF27F818601DB9214804B0C3
:10359000BDE8F0811E4E04F1080736F817008307D6
:1035A00034D595F800C06146890020F0200001F173
:1035B0008041C00401F5C041C00C26F8170000236B
:1035C000C1F810356A78002AE0D0D1F81035AD780E
:1035D00023F4991323F4F853C1F81035D1F810E50A
:1035E000230203F47C53120402F4403243EA0E0334
:1035F00013432A0502F4801240EA4C30134340F092
:10360000200026F81700C1F81035BFE70248BEE7D2
:10361000580000200000AD0B0400AD0B014BC3E9C6
:10362000020170475800002008B50246FFF76AFE05
:1036300038B1054B0548083233F812305B0B0B707C
:1036400008BD0348FCE700BF580000200000AD0B98
:103650000400AD0B38B50F4C94F87850BDB960221A
:10366000294604F1100001F0E0FC0620FEF79AF96B
:10367000094B0A48C3F87C51D3F87C214FF0004233
:10368000C3F80423012384F87830636738BD044805
:10369000FCE700BF58000020006000400000AD0BB8
:1036A0000500AD0B034B93F87800003818BF0120DC
:1036B000704700BF5800002001460148FFF74CBD8D
:1036C000C800002001460148FFF726BDC8000020C1
:1036D00037B50446FFF716FE04F108021E4B33F817
:1036E0001230E8B113F002051AD15B0B9A0002F117
:1036F000804000F5C24002F1804202F5C042056000
:103700000068D2F8100540F00100C2F8100529B198
:10371000012202FA03F3114AC2F8043303B030BDA8
:10372000C3F38203042B12D0052B12D001A80194FD
:10373000FFF7DAFD019BD0F81015D94001F0010127
:103740000231204603B0BDE8304001F05ABF0321EA
:10375000F7E70221F5E700BF5800002000600040B5
:1037600008B50246FFF7CEFDC0B102F108010E4BCD
:1037700033F81130990711D45B0B01229A409B005A
:103780000A4903F1804303F5C043C1F80823D3F885
:10379000102522F00302C3F8102508BDBDE808403B
:1037A0000021104601F02DBF5800002000600040AD
:1037B0000E4B00F1080213B533F81230DB07044654
:1037C00011D5FFF7CDFF2046FFF7EEFD01A80194CC
:1037D000FFF78AFD019B03F5E073022240F82320E6
:1037E000034802B010BD0348FBE700BF58000020AB
:1037F0000000AD0B0400AD0B2DE9F04F684B69489C
:103800006949002687B0012234461D6835B1D0F8D9
:10381000045315421EBF1C601D68164304338B42BF
:103820004FEA4202F1D1DFF87C91D9F87C31002BCC
:1038300000F099804FF0A043D3F820250492C3F8FC
:103840002025D3F820280592C3F820284FF000083F
:103850000DF1100A4FEA481300934FF0010B49E0B5
:10386000009B524A94FAA4F4B4FA84F41C44E0088D
:1038700004F10803039432F813701AF8003004F0CE
:1038800007020BFA02F223EA02030AF8003003A847
:10389000FFF72AFD039B03F5E073B90850F82330C6
:1038A000C7F382054A072F46C3F301432CD52046B0
:1038B0003946DDB2FFF730FD03A80394FFF714FD8E
:1038C000039B03F5E07350F82330C3F301439D429B
:1038D00007D10021204601F094FE2946204601F040
:1038E00090FE03A80394FFF7FFFC039B0BFA03F37E
:1038F000C0F820355AF82840002CB1D1B8F1000F9B
:103900001DD14FF00108A5E7022B0CD10321204661
:1039100001F077FE05F00503012BE2D13946204680
:10392000FFF7FAFCDDE702212046019301F069FE72
:10393000032DF3D0019B032BD3D1022DEDE74FF0E4
:10394000A042C9F87C41D9F87C311949D2F8203518
:103950000493C2F82035D1F8202505921343C1F80D
:1039600020257FF473AF012416B907B0BDE8F08FAE
:1039700096FAA6F3B3FA83F304FA03F29B0003F179
:10398000804303F5C04326EA0206D3F81005D3F8B6
:103990001015C0F30520C1F30141FFF7BDFCE3E7BB
:1039A000006100400060004020610040580000209D
:1039B0000003005001460148FFF7AEBBD4000020D1
:1039C00010B5144C144A1549032323616361144B49
:1039D000A261E3614FF4806323620023A362636208
:1039E000E36222660F4A62661022A266E01D236728
:1039F000E366636701F0F4FABFF35F8F0A4920467C
:103A000001F0EEFABFF35F8F2023A371BFF35F8F46
:103A100010BD00BFF4080020106800001968000005
:103A2000BD0B0020AD0B00201D6800000E4B70B5D3
:103A300053F82040013053F82060A64200D870BDF2
:103A4000D4E900352846984765B1EB6830B10028C5
:103A5000B8BF4042FF28A8BFFF2018705A7842F034
:103A600001025A700834E8E7EC5C000008B50A4B24
:103A7000012202201A70FFF7D9FF00F051FF032046
:103A8000FFF7D4FF00F03CF901F03CF9034A137B47
:103A900023F00103137308BDBD0F0020480200206E
:103AA00008B50348034A0021121A01F0E6FD08BDDB
:103AB000A8010020C00F002070B5002386B00122AD
:103AC000CDE90423134E144D01930F22CDE90232A8
:103AD0001249182303FB005506EBC01604464FF4A9
:103AE000B07000FB04110E4B00954FF4A0723046ED
:103AF00000F0D4F8737B0B4AEE6023F00403737379
:103B00004FF4026304FB033313442C756B6006B05F
:103B100070BD00BFC80100209C090020E0170020F4
:103B2000B93D0000C00F002080B52D4BA6B083F337
:103B300008882C4D2C4E6B692C4F43F400730024E5
:103B40006B61E02385F82230EC772C766C76AC76CE
:103B500085F820406B6A43F4E0236B6285F82340CC
:103B6000FEF720F9FDF700FF4FF0FF33AB62EB6289
:103B7000FEF752FAFEF7B8F940F20113ADF824301F
:103B800006ABB360CDE91F44229401F050FD2046FE
:103B9000FFF74CFF0120164DFFF748FF00F068FCCF
:103BA000144BF5610593012313490094CDE90343B8
:103BB0004FF480623B46CDE90144284600F06EF8A0
:103BC0006A7B064622F0040228466A7301F015FE5D
:103BD0002046FFF771FF3A4631462846FDF7BCFF05
:103BE000E017002000ED00E09C0900206D3A000085
:103BF00048020020246800004019002070B50E4BD8
:103C00000E4CA34201D3002070BDD3E9030141EA69
:103C1000000212F003020BD19D685A61AA4201D141
:103C20001C33EEE75E690E60013259610144F5E72D
:103C30006FF01500E8E700BF540100205401002098
:103C400073B50C464FF02005EFF3118185F3128810
:103C5000BFF36F8F45695DB125602B684361836950
:103C600001338361002081F31188BFF36F8F11E06E
:103C700052EA030603D125606FF00B00F3E7CDE9AC
:103C800000230246083000F007FB18B9024B9B687E
:103C90005B69236002B070BD9C0900202DE9FF41E3
:103CA0000E9E0673042646730D9E867300F158051A
:103CB0000F46D61DC0E916550C9A002526F00706BA
:103CC0002037C0E90655C0E919768560C573C56619
:103CD00006F1200802920B9A019288440A9A0092F7
:103CE00042460446FDF706FF044B65659B6803B139
:103CF0001B6F2367404604B0BDE8F0819C0900209B
:103D00002DE9F043294C2A4D87B02646AE4204F1F6
:103D100030040FD300F07CFB244CDFF898904FF474
:103D2000004640F2E737AC4220D307B0BDE8F0438D
:103D300000F082BB54F8043C059354F8103C049303
:103D400054F8143C039354F8183C029354F81C3C68
:103D5000019354F8203C009354E90A2354E90C01E0
:103D6000FFF79CFF54F8303C5E65CEE7636A5A1C4F
:103D70000DD023EAE37300213846C3FB060151EA64
:103D8000C333D4F8008004D1404600F0F1FA303457
:103D9000C9E74FF47A720023FCF7B2F902460B46EA
:103DA00008F11800494600F0C9FCF0E75401002072
:103DB000540100206757000008B50B4C0B4D4FF025
:103DC0002002EFF3118382F31288BFF36F8F01F0AB
:103DD0006CFD2B78A06113B9FDF7CCFDEFE7FDF783
:103DE00025FC0028EBD1F7E79C090020BD0F00203F
:103DF0002DE9F341044617461E464FF02003EFF32A
:103E0000118883F31288BFF36F8FC368324A7BB186
:103E100080689168884219D057EA060318D188F360
:103E20001188BFF36F8F6FF00F0002B0BDE8F08113
:103E3000916891F90E1021610133E3609368A360EA
:103E400088F31188BFF36F8F0020EEE72169F2E756
:103E500091F90E1090F90E309942A8BF19466FF0F3
:103E60007E029142B8BF11468B422EDD01F05AFC12
:103E70000546CDE9007619482246414600F00CFA85
:103E80000028E1D04FF02003EFF3118683F312886E
:103E9000BFF36F8F236821699C420AD04BB193F91D
:103EA0000E309942A8BF19466FF07E039942B8BF01
:103EB0001946A06801F036FC48B945B986F3118867
:103EC000BFF36F8F6FF00A00AFE70025D1E703481B
:103ED000314600F03BFAF5E79C090020BE0F0020B8
:103EE00038B583680446002B32D01C4A926893424E
:103EF00031D1DA7B013ADA73C368012B05D9013B72
:103F0000C36000F099FA002038BD4FF02003EFF3B2
:103F1000118583F31288BFF36F8F0169806801F008
:103F200001FC204601F079FCA06058B190F90E2008
:103F300022610022826701F060FC0948294600F0F6
:103F400005FADEE7E06085F31188BFF36F8FD8E7ED
:103F50006FF01500D8E74FF0FF30D5E79C0900203F
:103F6000BE0F002038B504464FF02003EFF3118553
:103F700083F31288BFF36F8F01F04FFC48B100222A
:103F8000826701F03AFC29460548BDE8384000F058
:103F9000DDB9D4E902329A4218BF0133A360F2E7D7
:103FA000BE0F002013B54FF02004EFF3118184F30E
:103FB0001288BFF36F8F846844B1013C846081F341
:103FC0001188BFF36F8F002002B010BD52EA0304C6
:103FD00006D181F31188BFF36F8F6FF00F00F3E705
:103FE000CDE900230246024800F056F9ECE700BF95
:103FF000BE0F002038B5074D2C6854B1FEF742FFC4
:10400000054B04441C6128680021BDE8384001F0DC
:104010005CBC38BDCC0900209C09002038B50D4D92
:104020002B4653F8204F9C4200D004B9EC68AB6893
:1040300038B95A7BD20604D1A26912B9DA897F2A2B
:1040400005D89C4202D02046FFF7D4FF2346EB61FF
:1040500038BD00BF9C09002070B590F90D20437B4E
:10406000002A014604DA03F07F03437301F069FB81
:104070004B7B154A63F07F0310464B7350F8203F8B
:10408000546A834208BF002323B9C1E900042160B8
:1040900051620CE091F90E5093F90E60B5420ED0CA
:1040A000AE420CDD5868C1E900300160596090688B
:1040B000431A5842BDE870405841FFF7AFBF9C42D9
:1040C000E3D01B68E0E700BF9C09002070B490F9C2
:1040D0000D30427B002B29DBD30627D183692BBB14
:1040E000134962F07F0242730A4652F8204F94420D
:1040F00018BF23464C6A23B9C0E9002420604862F7
:104100000CE090F90E5093F90E60B5420AD0AE4221
:1041100008DD5A68C0E900321060586070BC0020A9
:10412000FFF77CBFA342E7D01B68E4E770BC704791
:104130009C09002008B590F90D20437B002A014618
:1041400004DA03F07F03437301F0FBFA044B986831
:10415000431A58425841BDE80840FFF75FBF00BF0F
:104160009C0900202DE9F041064615461C464FF0FB
:104170002003EFF3118783F31288BFF36F8F01F0F1
:1041800014FB87F31188BFF36F8FB4F1FF3F08BFB3
:10419000B5F1FF3F08D02A46234606F1180003492F
:1041A000BDE8F04100F0CABABDE8F08167570000F1
:1041B000F8B504460D464FF02003EFF3118783F363
:1041C0001288BFF36F8F00264FF4004C40F2E730A7
:1041D00031464FF47A720023E4FB0C01FBF790FFA9
:1041E000B44202DD0228B8BF0220074A074B106024
:1041F000074A98681E611560FFF7FCFE87F3118877
:10420000BFF36F8FF8BD00BFCC0900209C090020D0
:10421000C809002038B54FF02003EFF3118583F370
:104220001288BFF36F8F174B174A9C6811688C4236
:1042300007D12046FFF7DEFE85F31188BFF36F8FAD
:1042400038BD00211160114A1268C2B1E2897F2A8B
:1042500015D8627BD20612D10D4A94F90E1012685D
:1042600091420CDB0B4A944209D01A69824203DC6A
:104270002046FFF7F1FEDCE7121A1A61DCE70022A4
:10428000FBE700BF9C090020C4090020CC090020E6
:10429000C8090020C801002010B5074B9868074BDB
:1042A0000C4618601146DDE90223FFF75BFF20464C
:1042B000BDE81040FDF7CABB9C090020C4090020DE
:1042C000F8B504464FF02003EFF3118683F312880C
:1042D000BFF36F8F437BDA0649B219D18569BDB947
:1042E00003F07F03437301F02CFA437B164A81737A
:1042F00063F07F034373134653F8200F984218BFAF
:104300000546506A5DB9C4E900300460546211E0AA
:10431000A173002086F31188BFF36F8FF8BD95F964
:104320000E70B9420BD08F4209DD6B68C4E90053AF
:104330001C606C600120FFF771FE0120EAE7A842D3
:10434000E1D02D68DEE700BF9C09002049B9EFF3FA
:10435000058030B9054BDA699B689A4201D0FDF7B8
:1043600075BB81F31188BFF36F8F70479C090020E4
:1043700010B54FF02002EFF3118482F31288BFF3DF
:104380006F8F427B510704D484F31188BFF36F8F82
:1043900010BD22F004024273FFF798FE2146024846
:1043A000BDE81040FFF7D2BFBE0F002070B5044635
:1043B000183001F064FA4FF02003EFF3118683F315
:1043C0001288BFF36F8F94F90D20637B002A05DA02
:1043D00003F07F036373204601F0B3F90B4D637B59
:1043E000A86843F010036373031B58425841FFF75A
:1043F00015FE86F31188BFF36F8FAB68A34203D11C
:10440000BDE8704001F031BA70BD00BF9C090020CA
:104410004FF02003EFF3118183F31288BFF36F8F06
:10442000044B9A68D37B013BD37381F31188BFF3AC
:104430006F8F70479C09002010B54FF02003EFF3F9
:10444000118483F31288BFF36F8F084B9A68D37B74
:104450000133D3730020FFF7E1FD84F31188BFF32C
:104460006F8FBDE8104001F000BA00BF9C0900202A
:10447000044B002103F12002C3E908220846FFF79C
:1044800097BE00BF9C090020F8B54FF02003EFF362
:10449000118583F31288BFF36F8F19498868437BB6
:1044A00003F07F03437301F04CF9437B0A4663F04A
:1044B0007F03437352F8203F4C6A934208BF0023A6
:1044C00023B9C0E90024206048620CE090F90E6036
:1044D00093F90E70BE420ED0B7420CDD5A68C0E9A7
:1044E0000032106058600120FFF798FD2846BDE8B3
:1044F000F840FDF7ABBAA342E3D01B68E0E700BF8A
:104500009C09002050EA01032DE9F04105460E46C2
:1045100003D1FFF7B9FF00202CE0831C71F1FF33BA
:104520002ADB01F0EEF944194FF02003EFF3118874
:1045300083F31288BFF36F8F114F124BB868186066
:10454000FFF7F8FDB86810492A463346183000F0E6
:10455000F5F8BA68537B43F0100353734046FDF7F8
:1045600075FA01F0CEF9201A63EB0303012873F109
:104570000003D0DBBDE8F0816FF00104241AD3E71B
:104580009C090020C409002067570000B1F1FF3FDB
:1045900008BFB0F1FF3F08B506D1084B9868FFF798
:1045A00005FF4FF0FF3008BDFFF7ACFF4FF47A7303
:1045B00080FB0303C00B40EA4340F4E79C09002062
:1045C000014B9868704700BF9C0900202DE9F0411D
:1045D00004464FF02003EFF3118683F31288BFF3F4
:1045E0006F8F437B1A0705D586F31188BFF36F8F52
:1045F000BDE8F08123F0200242F00801D20920D169
:104600004173A36813B1204601F0A3F804F1180028
:1046100001F035F904F158074FF00008A56DBD42CF
:1046200000D0B5B90120FFF7F9FC104B9B68A342FD
:10463000DAD1EFF30583002BD6D13046FDF706FA29
:10464000D2E703F05F0343F00803437301F079F806
:10465000D7E7284601F07DF805F1180001F00FF9C1
:10466000C5F878802846FFF731FDD7E79C09002080
:1046700008B50648064A0749121A01F000F8BDE8D5
:104680000840054A0549064800F0F9BF000000202F
:10469000A4010020606800000000000060680000C5
:1046A00000000020034B1B680BB9FEF7EBBB00209A
:1046B000704700BFD0090020114B10B51C689C4208
:1046C0000AD1FFF7EFFF6FF000400E4B1B6913B1EB
:1046D0009842A8BF184610BDFFF7E4FF002CF2D0A7
:1046E000D4E904321B1A62EBE072B3F1004F72F1AD
:1046F0000001E8DA002AACBF18460020E5E700BF59
:10470000D80000209C0900200B4A036852689042A0
:1047100030B509D043B1D3E90421D0E904451219D9
:1047200041EB0501C3E90421426813605A6000238C
:10473000C0E9003330BD00BFD8000020B3F1FF3F17
:1047400008BFB2F1FF3FF8B504461D46164661D0DA
:1047500081604FF02003EFF3118783F31288BFF3DA
:104760006F8F013275F1FF3324DA3049D1E900202F
:104770006FF001039B1A4FF0FF3262EB00009E1BAB
:1047800060EB0500012E70F1000301DA0126002024
:10479000C4E90460264ED6F800C07568B44508BF69
:1047A0004FF0000CBCF1000F0DD1C4E900652C6086
:1047B00074601CE0FFF776FF013645F100053618FE
:1047C00045EBE070E4E7DCE90420D4E904319342EE
:1047D00071EB000E1FDAD21ADCF8043060EB010036
:1047E000CCE90420C4E900C31C60CCF80440336861
:1047F000B3420BD09C4209D1FFF75EFF18B10D4BBD
:104800001B69834202D00021FEF70AFB87F311885F
:10481000BFF36F8FF8BD9B1A61EB0001AC45C4E993
:104820000431C2D0DCF800C0BCE700BFC8020020E1
:10483000D80000209C0900202DE9F8430546FFF729
:10484000E9FC4FF02003EFF3118483F31288BFF3E8
:104850006F8F244EDFF890803560244DD8F800002B
:1048600032684045D5E9001E4FEAE2770BD050B1DF
:10487000D0E9043C9A4277EB0C0916DA9B1A6CEBF0
:10488000070CC0E9043C51184EEB0707C5E90017B7
:1048900000253560FFF710FF2946FEF7C1FA84F3C3
:1048A0001188BFF36F8FBDE8F88359184EEBE3779B
:1048B000D31A336000220023C0E90423C5E900179E
:1048C000FFF722FF84F31188BFF36F8F8368984747
:1048D0004FF02003EFF3118483F31288BFF36F8F3F
:1048E000BCE700BFD0090020D8000020C80200208B
:1048F00010B54FF02003EFF3118483F31288BFF358
:104900006F8FFEF7BFFA054AD2E90031C01841F1B6
:10491000000184F31188BFF36F8F10BDC80200201F
:10492000024A0349034800F016BA00BF5C68000061
:10493000296800003668000010B50A4C23681BB1D6
:1049400001232360002010BD00F0CEF80028F7D02E
:104950000138062803D8044B53F8200010BD034843
:1049600010BD00BFD4090020045D0000FE8FFFFFD2
:10497000BFF34F8F0549064BCA6802F4E062134348
:10498000CB60BFF34F8F00BFFDE700BF00ED00E03D
:104990000400FA0510B4094B09490A4C4FF0FE32E5
:1049A000C3F800244968C3F80424C3F80824C3F8F2
:1049B0000C240023C4F8003510BC084700B0025096
:1049C000E000002000A00250D0E90012014BC3E932
:1049D00000127047E000002010B5044630B1636853
:1049E000DB0602D500232360636010BD024B034841
:1049F0005B689847F3E700BFE0000020205D0000FF
:104A0000B0B1436893B1DB060ED5012350E8002F07
:104A1000194640E8001C9CF0000FF7D1012AF5D0A0
:104A2000BFF35F8F0020704703487047034870470B
:104A30006FF4E040704700BFE98FFFFFEA8FFFFF90
:104A400068B143683BB1DB0607D5BFF35F8F002336
:104A500003601846704703487047034870476FF477
:104A6000E0407047EA8FFFFFE98FFFFF10B5044673
:104A700020B1002211232260636010BD0148FFF7BE
:104A800089FFF6E7485D000070B5D0E90023134CBC
:104A9000134D6360D0E90230C4E902302260114B4B
:104AA000086818604868586088689860D1E9030110
:104AB000D8601961D5F81831DB060DD50023C5E99A
:104AC0004533C5E96E3305F58A709047236805F5CF
:104AD000DC70BDE87040184770BD00BFF0000020DA
:104AE000EC0900200001002038B500F02FF820B1BB
:104AF000032400F063F8204638BD00F031F898B97F
:104B000000F0ACF898B90F4DD5F828391B0EF02BF2
:104B100008D1D5F8242A0C4B9A420AD0072400F079
:104B200017F8E6E70624FAE70424204638BD0024F7
:104B3000F5E7012000F092F804460028F7D1C5F807
:104B40000C0AD8E700B002500000E02000207047B7
:104B500000207047014BC3F8040A704700B00250B0
:104B600010B5114800F048F800B110BD0F4800F032
:104B700043F80028F9D10E4C204600F03DF80028FB
:104B8000F3D10C4B0C481C6000F036F801460028AD
:104B9000EBD100F02DF8044608B1204610BD00F01E
:104BA0003FF82046FAE700BF380100202C01002022
:104BB000340100203C0100203001002008B50848E5
:104BC00000F024F8074800F021F8074800F01EF82C
:104BD000064800F01BF8BDE8084000F00BB800BF25
:104BE000380100202C010020340100203001002079
:104BF00000207047704700BF08B5034B02681B6870
:104C000010689847002008BDF000002008B5034B4D
:104C100002685B6810689847002008BDF00000201B
:104C200070B5094C094D2069AB68984718B1084B1D
:104C300008485B689847084AEB68206900211160C2
:104C4000BDE87040184700BF00010020F0000020C0
:104C5000E00000206C5D0000E809002070B51B4DED
:104C60001B4E0446B26828699047F8B95CB1194CEC
:104C70002368B3B1012B1BD0013B23602869F36883
:104C80009847002070BD134C216841B9124B012296
:104C9000C3F80025114AD2F81039002BFBD101319D
:104CA0002160F36828699847002070BD0C4870BDEA
:104CB0000A4AD2F81039002BFBD1074A6FF07E4028
:104CC000C2F80035FFF746FF2368D5E70001002052
:104CD000F0000020E809002000A0025000B00250BF
:104CE000E98FFFFF014640F2E73008B54FF47A72D2
:104CF000002300EBC1304914FBF702FABDE808407D
:104D0000FFF744BC08B5FBF703FC40F6B830FFF7EB
:104D1000E9FFFBF7ADFC034658B1426802F003021D
:104D2000012A03D0032A04D1026812B1002098603E
:104D300070476FF0150070474268816002F003020F
:104D4000032A4FF0000203460CBF006810465A6069
:104D50007047002070470FB407B504A951F8040B41
:104D60000191FBF7FFFE03B05DF804EB04B0704760
:104D7000038B13F0070305D10368002B0CBF002041
:104D800003207047022B05D1408BB0FA80F0400918
:104D900080007047012B05D10368002B0CBF002059
:104DA000052070470020704710B50C4600B111B9BE
:104DB0006FF0150010BD081DFFF7ADFF0028F9D1F9
:104DC000A368032BF6D9F3E72DE9F0410D4607461A
:104DD0001946281D90461E46FFF7AEFF044638B11F
:104DE0003346424629463846A446BDE8F04160476E
:104DF000BDE8F08110B44FF02004EFF3118284F38A
:104E00001288BFF36F8F416110BC0121FBF7B8BE60
:104E100038B50C46054658B151B10B6843B14B68E3
:104E200033B11C22002100F000F92C61002038BDB4
:104E30006FF01500FBE770B505460E46FFF7B4FFAF
:104E4000041E15DB4FF02003EFF3118283F3128869
:104E5000BFF36F8F6B8B2C8B4FF6FF718B4204F07F
:104E6000070407D182F31188BFF36F8F6FF00A0434
:104E7000204670BD022C0CD101336B8382F3118864
:104E8000BFF36F8F0023224631462846FFF79CFF71
:104E9000EEE7062C14D8DFE804F004131313041A09
:104EA0000400002333606B683BB9C5E90066ACB908
:104EB00002212846FBF764FEDAE71E606E60F6E723
:104EC00082F31188BFF36F8F6FF00404D0E782F391
:104ED0001188BFF36F8F6FF08504C9E782F31188E3
:104EE000BFF36F8FC4E7044608B5084611461A465B
:104EF000A047FFF765FBFCF7E1FF2DE9F84F9A4665
:104F0000D3786F2B80460F461546A3F1410B29D06D
:104F100024D8582B0CBF10260A26DDF828903246DC
:104F2000002340463946FBF7EBF8092AD4B21ED8D5
:104F30003034B045E4B277F1000709F8014D01D3F0
:104F4000D14511D82B789B0605D5082E15D1AB7805
:104F500043F00803AB704846BDE8F88F03F0F70351
:104F6000702BD7E70826D8E780460F46D7E7BBF176
:104F7000190F94BF37345734DBE7102EEBD1AB78E1
:104F800043F01003E6E72DE9F04107468846154651
:104F90001E461446B44205D30EB1601B08E02378C8
:104FA000002BFAD014F8010B4146B8470028F1DA7B
:104FB000BDE8F081704708B50020FCF7A1FA00F0C9
:104FC00041BB0146006800F03DBB00210120FFF716
:104FD000F6BF08B5FCF71AFDBDE80840FCF7F2BDC6
:104FE0000139034611F8012F0AB91A70704703F806
:104FF000012BF7E7034600201A5C02B97047013025
:10500000FAE7034600201A5C0AB1884200D17047D3
:105010000130F8E710B5431E0A44914200D110BD9B
:1050200011F8014B03F8014FF7E7C9B202440346F8
:10503000934200D1704703F8011BF9E74FF0FF30AE
:105040007047062808D14FF080430122C3F800259D
:10505000BFF34F8F20BFFDE77047002383F3118814
:10506000BFF36F8F70470369C9B20C2201FB023393
:10507000186C00F0070070474FF02003EFF3118227
:1050800083F31288BFF36F8F036803F0C00343F00C
:105090000203036082F31188BFF36F8F704770B50E
:1050A0000369C9B24FF02004EFF3118584F312882D
:1050B000BFF36F8F0C2606FB0134246C14F0C00480
:1050C00008D0A24206D085F31188BFF36F8F4FF04E
:1050D000FF3070BD06FB013301221A6485F311888D
:1050E000BFF36F8F436803EBC1035B6898470020F1
:1050F000EFE78022FFF7D3BFF8B5069F0469C9B276
:105100004FF02005EFF3118685F31288BFF36F8F00
:105110000C2505FB0144256C05F0070CBCF1010FC3
:105120000CD1276486F31188BFF36F8FC4E90E2377
:10513000436853F8313098470020F8BD05F0C005AA
:10514000AF4286F31188BFF36F8F0CBF6FF077000B
:105150004FF0FF30F1E713B580240094FFF7CCFF48
:1051600002B010BD006910B4CBB21C2403FB0400D4
:10517000002110BC1047002000F0BCB9002000F056
:10518000F5B91046FEF7EEBE43685B68D3F81035FC
:105190000B600020704743685B68D3F80405424009
:1051A0000A404240C3F804250020704743685B680A
:1051B0000020C3F80815704743685B680020C3F8F7
:1051C0000C15704743685A68D2F804354B40C2F852
:1051D0000435002070470369586810B548B188420B
:1051E00013D19C6808685860A14200D198600020E3
:1051F00008607AB9002010BD814206D1086820609D
:1052000098688142F3D19C60F1E704460068002869
:10521000F2D13AB15A680A609A685960002AE9D115
:105220009960E7E76FF01500E5E702690B46D2E900
:10523000010183E803000020704743681B68D3F82E
:105240008004C3F880047047436802691B68D3F880
:10525000100148B1527C0A700020C3F81001D3F845
:10526000102101221A6070474FF0FF30704702682A
:105270000346D2F8580140B95B689B0706D4D2F8C0
:105280002001003818BF0120704701207047426894
:105290001368D3F80413C90518D5D3F82011A9B1A0
:1052A0004FF02000EFF3118180F31288BFF36F8F6E
:1052B000D3F8200130B10020C3F82001D3F8200139
:1052C0000120D86081F31188BFF36F8F5268D20636
:1052D00015D54FF02001EFF3118281F31288BFF34F
:1052E0006F8FD3F8581111B10021C3F800154FF496
:1052F0008001C3F8081382F31188BFF36F8F7047E2
:1053000010B50022044601212820FCF767FB282065
:10531000FCF748FB2046BDE81040FDF79FBA10B5EA
:105320000022044601210220FCF758FB0220FCF772
:1053300039FB2046BDE81040FDF790BA704730B504
:1053400043681360037A03F10053013BDB004568B7
:1053500014681D44AC4202D96FF0010030BD65797C
:105360008D4202D008341460F1E70020F6E709B955
:10537000FDF792BDFDF7C2BD70B51546044600EBC2
:105380008106A64201D1002070BD23681A0C222A92
:1053900000F28E80DFE802F0121D24432939438C8D
:1053A0008C8C8C484D8C8C8C8C8C8C8C8C8C525E28
:1053B00063688C8C8C6D73787D82870003F03F036B
:1053C000C5F80C35206800F03F00FDF797FD01227D
:1053D00015E003F03F03C5F81435002200210FE06B
:1053E00003F03F03C5F80835ECE703F03F03C5F8C9
:1053F0000835206800F03F00FDF74EFD0022012136
:105400002068FDF759FD0434BBE703F03F03C5F8FE
:105410000C35206800F03F00FDF73EFDD7E703F0B4
:105420003F03C5F81035D8E703F03F03C5F808354A
:10543000D3E703F03F03C5F80C35CEE703F03F0395
:10544000C5F860352068C0F3403100F03F00FFF739
:105450008EFFBCE703F03F03C5F86435F2E703F0C5
:105460003F03C5F86835EDE703F03F03C5F86C3539
:10547000E8E703F03F03C5F824350122AEE703F067
:105480003F03C5F82835F8E703F03F03C5F830358A
:10549000F3E703F03F03C5F83435EEE703F03F03CD
:1054A000C5F83835E9E703F03F03C5F83C35E4E7D4
:1054B0006FF0850068E708B50020FCF713FEFFF7E2
:1054C0003BBA08B5FCF786F9FCF738FABDE80840A6
:1054D000FFF732BA004700F018BA08B50020FCF711
:1054E0006FFA08B9FCF75EFA4FF080430022C3F868
:1054F000182508BD08B510B101282CD008BD4FF003
:105500008042D2F81834D2F81814C8030BD4D2F859
:105510001434D9070FD5D2F81C349B0708D40223C2
:10552000C2F80433EAE703F00303012B04D013B1FC
:105530000020FDF731FE00234FF08042C2F81835FD
:105540000023C2F80431D2F804310223C2F8043334
:1055500001239360D2E74FF080430022C3F800217B
:10556000D3F80021C3F804031860C7E7FDF714BEA1
:10557000F7B5019001A8DDE9084716461D46FDF77D
:10558000B3FE019BB6F1000C18BF4FF0010C00EB0D
:1055900083000B1E18BF0123002D43EA4C0314BFE8
:1055A0004FF00C0C4FF0000C002C43EA0C0314BF1E
:1055B0004FF4E06C4FF0000C002F43EA0C03D0F8DE
:1055C000002714BF4FF4403C4FF0000C43EA0C039B
:1055D00022EA030301B109780EB136787600194347
:1055E0000DB12D78AD0031430CB12478240229434C
:1055F0000FB13F783F040C433C43C0F8004703B071
:10560000F0BD1FB50DF10F03019300238DF80F10AE
:1056100000931A461946FFF7ABFF05B05DF804FB8F
:10562000FEF7CEB908B5FFF7FBFF002008BD7047B5
:1056300038B1C3681888C0F30800A0F580735842D9
:1056400058417047F8B505460E464FF02003EFF37A
:10565000118783F31288BFF36F8FFEF7B1FF3146D6
:1056600004462846FFF727FF87F31188BFF36F8FA3
:105670002046BDE8F840FCF721BCFFF7D6BCFFF799
:10568000C9BC30B50024846141EA020414F003046B
:10569000C0E9023201610CD12546A342456103D124
:1056A000C0E90000002030BD0D6001340D461144FA
:1056B000F3E76FF01500F6E7F8B504460D464FF036
:1056C0002003EFF3118683F31288BFF36F8F4769CE
:1056D00077B900F0A2F858B12A684261876700F0F4
:1056E0008CF8314604F10800BDE8F840FEF72EBE04
:1056F0002B6862691A602B686361A369013BA3612F
:1057000086F31188BFF36F8FF8BDEFF30580003883
:1057100018BF0120704708B5FBF74CFFBDE80840F3
:10572000FFF70CBE90F90E308B4201D0FEF7C8BDDA
:105730000020704703460020C3E90200C3E900339C
:105740007047D0E9003213605A600023C0E900338B
:10575000704708B5FFF7F5FF437B23F0020343735F
:105760000023836008BD10B501464FF02003EFF31E
:10577000118483F31288BFF36F8F10F80B3C13F082
:10578000280F0DD151F8103C18380BB1FFF7E1FF8D
:1057900011F80B3C23F0140301F80B3CFEF796FCC8
:1057A00084F31188BFF36F8F10BD38B504460D46E2
:1057B000FEF7C0FC637B43F002036373E5B12B6823
:1057C000A5609D4209D16B68C4E900531C606C6000
:1057D00012E06A689342F6D01B68002BF3D094F96C
:1057E0000E2093F90E108A42F3D09142F1DD5A68EF
:1057F000C4E9003214605C6038BD10B54FF020037E
:10580000EFF3118483F31288BFF36F8FFEF75EFC12
:1058100084F31188BFF36F8F10BD38B54FF02003AC
:10582000EFF3118583F31288BFF36F8F0468A042F2
:105830000DD034B12046FFF78CFF04F1180000F0C2
:105840001EF885F31188BFF36F8F204638BD002402
:10585000F7E7034620B9EFF305820AB9FCF7F6B87B
:1058600083F31188BFF36F8F70474FF02003EFF37E
:10587000118083F31288BFF36F8FFFF7EABF10B573
:105880004FF02002EFF3118482F31288BFF36F8F81
:1058900003683BB1FEF738FF002084F31188BFF3A3
:1058A0006F8F10BD6FF01500F7E710B54FF02003B4
:1058B000EFF3118483F31288BFF36F8FFEF7FCFEC2
:1058C00084F31188BFF36F8F10BD70B504460D4689
:1058D0004FF02003EFF3118683F31288BFF36F8F2D
:1058E000FEF7EAFE012807DDA04205DBA0422946BB
:1058F000A8BF2046FDF794FA86F31188BFF36F8F97
:1059000070BD08B5FEF7F4FF08BD08B1FCF700BC98
:0859100070477047FDF71CBB56
:085918001CA8FF7F0100000044
:10592000852000000000000099210000805900003F
:105930002556000000000000FD3B000000000000B4
:105940002D250000985900002D250000B0590000B9
:10595000BF5400000000000001530000C8590000BF
:105960001F530000E0590000012400000000000067
:10597000BD2C000000000000C35400000000000027
:10598000E26700000C5C00001C5C0000400100208D
:1059900070080020905B0000E8670000345C0000A5
:1059A000545C000044010020C80800208A5B00000D
:1059B000EF670000445C0000545C000048010020D8
:1059C000D4080020845B0000F6670000785C0000CB
:1059D000D85C00004C0100202C0000207E5B000001
:1059E000FD670000A45C0000D85C000050010020AE
:0859F00040000020785B00007C
:1059F80081320000D554000000000000CB4F0000A9
:105A0800E05900008F52000000000000CB4F00005A
:105A180000000000CB4F000000000000CB4F00004A
:105A2800F9370000D554000000000000CB4F0000FB
:105A380000000000CB4F000000000000CB4F00002A
:105A480000000000CB4F000000000000CB4F00001A
:105A580000000000CB4F000000000000CB4F00000A
:105A680000000000CB4F000000000000CB4F0000FA
:105A780000000000CB4F0000000000003D2D00009A
:105A880000000000CB4F000000000000CB4F0000DA
:105A980000000000CB4F000000000000CB4F0000CA
:105AA80000000000CB4F000000000000CB4F0000BA
:105AB80000000000CB4F000000000000CB4F0000AA
:105AC80000000000CB4F000000000000CB4F00009A
